{
  "_format": "hh-sol-artifact-1",
  "contractName": "PegAssetFactory",
  "sourceName": "contracts/core/PegAssetFactory.sol",
  "abi": [
    {
      "inputs": [
        {
          "internalType": "address",
          "name": "_pegCore",
          "type": "address"
        }
      ],
      "stateMutability": "nonpayable",
      "type": "constructor"
    },
    {
      "inputs": [],
      "name": "AlreadySet",
      "type": "error"
    },
    {
      "inputs": [],
      "name": "InconsistentInput",
      "type": "error"
    },
    {
      "inputs": [],
      "name": "InsufficientCollateral",
      "type": "error"
    },
    {
      "inputs": [],
      "name": "InsufficientSwapLiquidity",
      "type": "error"
    },
    {
      "inputs": [],
      "name": "InvalidAddress",
      "type": "error"
    },
    {
      "inputs": [],
      "name": "InvalidLltv",
      "type": "error"
    },
    {
      "inputs": [],
      "name": "InvalidMarketParams",
      "type": "error"
    },
    {
      "inputs": [],
      "name": "InvalidPrice",
      "type": "error"
    },
    {
      "inputs": [],
      "name": "InvalidSwap",
      "type": "error"
    },
    {
      "inputs": [],
      "name": "LltvNotEnabled",
      "type": "error"
    },
    {
      "inputs": [],
      "name": "MarketAlreadyExists",
      "type": "error"
    },
    {
      "inputs": [],
      "name": "MarketNotActive",
      "type": "error"
    },
    {
      "inputs": [],
      "name": "MarketNotFound",
      "type": "error"
    },
    {
      "inputs": [],
      "name": "NoSpareCapacity",
      "type": "error"
    },
    {
      "inputs": [],
      "name": "NotMinter",
      "type": "error"
    },
    {
      "inputs": [],
      "name": "PendingFeeDust",
      "type": "error"
    },
    {
      "inputs": [],
      "name": "SlippageExceeded",
      "type": "error"
    },
    {
      "inputs": [],
      "name": "SwapNotEnabled",
      "type": "error"
    },
    {
      "inputs": [],
      "name": "TransferAmountExceedsAllowance",
      "type": "error"
    },
    {
      "inputs": [],
      "name": "TransferAmountExceedsBalance",
      "type": "error"
    },
    {
      "inputs": [],
      "name": "Unauthorized",
      "type": "error"
    },
    {
      "inputs": [],
      "name": "UnsupportedFeature",
      "type": "error"
    },
    {
      "inputs": [],
      "name": "ZeroAmount",
      "type": "error"
    },
    {
      "anonymous": false,
      "inputs": [
        {
          "indexed": true,
          "internalType": "address",
          "name": "creator",
          "type": "address"
        },
        {
          "indexed": true,
          "internalType": "address",
          "name": "pegAsset",
          "type": "address"
        },
        {
          "indexed": false,
          "internalType": "string",
          "name": "name",
          "type": "string"
        },
        {
          "indexed": false,
          "internalType": "string",
          "name": "symbol",
          "type": "string"
        }
      ],
      "name": "CreatePegAsset",
      "type": "event"
    },
    {
      "inputs": [
        {
          "internalType": "string",
          "name": "_name",
          "type": "string"
        },
        {
          "internalType": "string",
          "name": "_symbol",
          "type": "string"
        }
      ],
      "name": "createPegAsset",
      "outputs": [
        {
          "internalType": "address",
          "name": "pegAsset_",
          "type": "address"
        }
      ],
      "stateMutability": "nonpayable",
      "type": "function"
    },
    {
      "inputs": [],
      "name": "pegCore",
      "outputs": [
        {
          "internalType": "address",
          "name": "",
          "type": "address"
        }
      ],
      "stateMutability": "view",
      "type": "function"
    }
  ],
  "bytecode": "0x60a034608057601f610ece38819003918201601f19168301916001600160401b03831184841017608457808492602094604052833981010312608057516001600160a01b03811680820360805715607157608052604051610e359081610099823960805181818160cd01526101a20152f35b63e6c4247b60e01b5f5260045ffd5b5f80fd5b634e487b7160e01b5f52604160045260245ffdfe6080806040526004361015610012575f80fd5b5f3560e01c90816315ca539014610190575063dfed799314610032575f80fd5b3461018c57604036600319011261018c5760043567ffffffffffffffff811161018c576100639036906004016101d1565b60243567ffffffffffffffff811161018c576100839036906004016101d1565b90604051610be080820182811067ffffffffffffffff8211176101785782916102208339606081526100cb6100bc60608301888a6101ff565b828103602084015286866101ff565b7f00000000000000000000000000000000000000000000000000000000000000006001600160a01b031660409092019190915203905ff0801561016d57602094610162947f1b1d94bd7b9cf8573e9fa7721b2a0fddefc7efae357e139aa2fffb96c5c3a25b9260018060a01b03169586956101536040519485946040865260408601916101ff565b908382038a85015233966101ff565b0390a3604051908152f35b6040513d5f823e3d90fd5b634e487b7160e01b5f52604160045260245ffd5b5f80fd5b3461018c575f36600319011261018c577f00000000000000000000000000000000000000000000000000000000000000006001600160a01b03168152602090f35b9181601f8401121561018c5782359167ffffffffffffffff831161018c576020838186019501011161018c57565b908060209392818452848401375f828201840152601f01601f191601019056fe60a06040523461035d57610be08038038061001981610361565b92833981019060608183031261035d5780516001600160401b03811161035d5782610045918301610386565b60208201519092906001600160401b03811161035d57604091610069918401610386565b9101516001600160a01b03811680820361035d5783516001600160401b03811161026e57600354600181811c91168015610353575b602082101461025057601f81116102f0575b50602094601f821160011461028d579481929394955f92610282575b50508160011b915f199060031b1c1916176003555b82516001600160401b03811161026e57600454600181811c91168015610264575b602082101461025057601f81116101ed575b506020601f821160011461018a57819293945f9261017f575b50508160011b915f199060031b1c1916176004555b156101705760805260405161080890816103d882396080518181816101440152818161038401526105650152f35b63e6c4247b60e01b5f5260045ffd5b015190505f8061012d565b601f1982169060045f52805f20915f5b8181106101d5575095836001959697106101bd575b505050811b01600455610142565b01515f1960f88460031b161c191690555f80806101af565b9192602060018192868b01518155019401920161019a565b60045f527f8a35acfbc15ff81a39ae7d344fd709f28e8600b4aa8c65c6b64bfe7fe36bd19b601f830160051c81019160208410610246575b601f0160051c01905b81811061023b5750610114565b5f815560010161022e565b9091508190610225565b634e487b7160e01b5f52602260045260245ffd5b90607f1690610102565b634e487b7160e01b5f52604160045260245ffd5b015190505f806100cc565b601f1982169560035f52805f20915f5b8881106102d8575083600195969798106102c0575b505050811b016003556100e1565b01515f1960f88460031b161c191690555f80806102b2565b9192602060018192868501518155019401920161029d565b60035f527fc2575a0e9e593c00f959f8c92f12db2869c3395a3b0502d05e2516446f71f85b601f830160051c81019160208410610349575b601f0160051c01905b81811061033e57506100b0565b5f8155600101610331565b9091508190610328565b90607f169061009e565b5f80fd5b6040519190601f01601f191682016001600160401b0381118382101761026e57604052565b81601f8201121561035d578051906001600160401b03821161026e576103b5601f8301601f1916602001610361565b928284526020838301011161035d57815f9260208093018386015e830101529056fe6080806040526004361015610012575f80fd5b5f3560e01c90816306fdde031461061657508063095ea7b31461059457806315ca53901461055057806318160ddd1461053357806323b872dd14610454578063313ce5671461043957806340c10f191461036557806370a082311461032e57806395d89b41146102135780639dc29fac14610125578063a9059cbb146100f45763dd62ed3e146100a0575f80fd5b346100f05760403660031901126100f0576100b961070f565b6100c1610725565b6001600160a01b039182165f908152600160209081526040808320949093168252928352819020549051908152f35b5f80fd5b346100f05760403660031901126100f05761011a61011061070f565b602435903361073b565b602060405160018152f35b346100f05760403660031901126100f05761013e61070f565b602435907f00000000000000000000000000000000000000000000000000000000000000006001600160a01b03163303610204576001600160a01b031680156101f157805f525f60205260405f20548281106101d8576020835f947fddf252ad1be2c89b69c2b068fc378daa952ba7f163c4a11628f55a4df523b3ef938587528684520360408620558060025403600255604051908152a3005b9063391434e360e21b5f5260045260245260445260645ffd5b634b637e8f60e11b5f525f60045260245ffd5b633e34a41b60e21b5f5260045ffd5b346100f0575f3660031901126100f0576040515f6004548060011c90600181168015610324575b602083108114610310578285529081156102f4575060011461029f575b50819003601f01601f191681019067ffffffffffffffff82118183101761028b57610287829182604052826106e5565b0390f35b634e487b7160e01b5f52604160045260245ffd5b905060045f527f8a35acfbc15ff81a39ae7d344fd709f28e8600b4aa8c65c6b64bfe7fe36bd19b5f905b8282106102de57506020915082010182610257565b60018160209254838588010152019101906102c9565b90506020925060ff191682840152151560051b82010182610257565b634e487b7160e01b5f52602260045260245ffd5b91607f169161023a565b346100f05760203660031901126100f0576001600160a01b0361034f61070f565b165f525f602052602060405f2054604051908152f35b346100f05760403660031901126100f05761037e61070f565b602435907f00000000000000000000000000000000000000000000000000000000000000006001600160a01b03163303610204576001600160a01b031690811561042657600254908082018092116104125760207fddf252ad1be2c89b69c2b068fc378daa952ba7f163c4a11628f55a4df523b3ef915f9360025584845283825260408420818154019055604051908152a3005b634e487b7160e01b5f52601160045260245ffd5b63ec442f0560e01b5f525f60045260245ffd5b346100f0575f3660031901126100f057602060405160128152f35b346100f05760603660031901126100f05761046d61070f565b610475610725565b6001600160a01b0382165f818152600160209081526040808320338452909152902054909260443592915f1981106104b3575b5061011a935061073b565b8381106105185784156105055733156104f25761011a945f52600160205260405f2060018060a01b0333165f526020528360405f2091039055846104a8565b634a1406b160e11b5f525f60045260245ffd5b63e602df0560e01b5f525f60045260245ffd5b8390637dc7a0d960e11b5f523360045260245260445260645ffd5b346100f0575f3660031901126100f0576020600254604051908152f35b346100f0575f3660031901126100f0576040517f00000000000000000000000000000000000000000000000000000000000000006001600160a01b03168152602090f35b346100f05760403660031901126100f0576105ad61070f565b602435903315610505576001600160a01b03169081156104f257335f52600160205260405f20825f526020528060405f20556040519081527f8c5be1e5ebec7d5bd14f71427d1e84f3dd0314c0f7b2291e5b200ac8c7c3b92560203392a3602060405160018152f35b346100f0575f3660031901126100f0575f6003548060011c906001811680156106db575b602083108114610310578285529081156102f457506001146106865750819003601f01601f191681019067ffffffffffffffff82118183101761028b57610287829182604052826106e5565b905060035f527fc2575a0e9e593c00f959f8c92f12db2869c3395a3b0502d05e2516446f71f85b5f905b8282106106c557506020915082010182610257565b60018160209254838588010152019101906106b0565b91607f169161063a565b602060409281835280519182918282860152018484015e5f828201840152601f01601f1916010190565b600435906001600160a01b03821682036100f057565b602435906001600160a01b03821682036100f057565b6001600160a01b03169081156101f1576001600160a01b031691821561042657815f525f60205260405f20548181106107b957817fddf252ad1be2c89b69c2b068fc378daa952ba7f163c4a11628f55a4df523b3ef92602092855f525f84520360405f2055845f525f825260405f20818154019055604051908152a3565b8263391434e360e21b5f5260045260245260445260645ffdfea26469706673582212202dbae5b330a650a6d7cda94d0087bbf5ca045cc801ea071f287643a8b9bb6fcf64736f6c634300081e0033a26469706673582212201993cc83ce05c57e31b8f0be648b572ba9b14f8c5ae31bb7fb0a5dacba93a87a64736f6c634300081e0033",
  "linkReferences": {},
  "deployedLinkReferences": {}
}