{
  "_format": "hh-sol-artifact-1",
  "contractName": "PegStateView",
  "sourceName": "contracts/view/PegStateView.sol",
  "abi": [
    {
      "inputs": [
        {
          "internalType": "address",
          "name": "_pegCore",
          "type": "address"
        }
      ],
      "stateMutability": "nonpayable",
      "type": "constructor"
    },
    {
      "inputs": [],
      "name": "InvalidPrice",
      "type": "error"
    },
    {
      "inputs": [],
      "name": "ORACLE_PRICE_SCALE",
      "outputs": [
        {
          "internalType": "uint256",
          "name": "",
          "type": "uint256"
        }
      ],
      "stateMutability": "view",
      "type": "function"
    },
    {
      "inputs": [],
      "name": "WAD",
      "outputs": [
        {
          "internalType": "uint256",
          "name": "",
          "type": "uint256"
        }
      ],
      "stateMutability": "view",
      "type": "function"
    },
    {
      "inputs": [
        {
          "internalType": "address",
          "name": "_account",
          "type": "address"
        },
        {
          "internalType": "Id[]",
          "name": "_marketIds",
          "type": "bytes32[]"
        }
      ],
      "name": "check",
      "outputs": [
        {
          "components": [
            {
              "internalType": "Id",
              "name": "marketId",
              "type": "bytes32"
            },
            {
              "internalType": "uint256",
              "name": "price",
              "type": "uint256"
            },
            {
              "internalType": "uint256",
              "name": "collateralAmount",
              "type": "uint256"
            },
            {
              "internalType": "uint256",
              "name": "collateralValue",
              "type": "uint256"
            },
            {
              "internalType": "uint256",
              "name": "borrowedAmount",
              "type": "uint256"
            },
            {
              "internalType": "uint256",
              "name": "borrowedValue",
              "type": "uint256"
            },
            {
              "internalType": "bool",
              "name": "isHealthy",
              "type": "bool"
            }
          ],
          "internalType": "struct MarketCheck[]",
          "name": "markets_",
          "type": "tuple[]"
        }
      ],
      "stateMutability": "view",
      "type": "function"
    },
    {
      "inputs": [
        {
          "internalType": "Id",
          "name": "_id",
          "type": "bytes32"
        },
        {
          "internalType": "address",
          "name": "_account",
          "type": "address"
        }
      ],
      "name": "maxMintable",
      "outputs": [
        {
          "internalType": "uint256",
          "name": "",
          "type": "uint256"
        }
      ],
      "stateMutability": "view",
      "type": "function"
    },
    {
      "inputs": [],
      "name": "pegCore",
      "outputs": [
        {
          "internalType": "contract IPegCoreState",
          "name": "",
          "type": "address"
        }
      ],
      "stateMutability": "view",
      "type": "function"
    }
  ],
  "bytecode": "0x60a034607657601f610d7338819003918201601f19168301916001600160401b03831184841017607a57808492602094604052833981010312607657516001600160a01b03811690819003607657608052604051610ce4908161008f82396080518181816101510152818161071301526108d80152f35b5f80fd5b634e487b7160e01b5f52604160045260245ffdfe6080806040526004361015610012575f80fd5b5f3560e01c90816315ca5390146107015750806318a26dce146106c7578063646cfe0e146100a25780636a146024146100805763b208212414610053575f80fd5b3461007c575f36600319011261007c5760206040516ec097ce7bc90715b34b9f10000000008152f35b5f80fd5b3461007c575f36600319011261007c576020604051670de0b6b3a76400008152f35b3461007c57604036600319011261007c576004356001600160a01b038116810361007c576024359067ffffffffffffffff821161007c573660238301121561007c578160040135916100f383610764565b926101016040519485610742565b8084526024602085019160051b8301019136831161007c57602401905b8282106106b757505050604051906020820182811067ffffffffffffffff8211176106a3576040526060825290915f91907f00000000000000000000000000000000000000000000000000000000000000006001600160a01b031690835b8151811015610243576101c760a0856101958486610be5565b516040516349e2903160e11b815260048101919091526001600160a01b03909116602482015291829081906044820190565b0381875afa8015610238576001600160801b03915f91610205575b50166101f1575b60010161017c565b936101fd600191610c0d565b9490506101e9565b610226915060a03d8111610231575b61021e8183610742565b8101906107fd565b5050509050886101e2565b503d610214565b6040513d5f823e3d90fd5b509261024e81610764565b9061025c6040519283610742565b80825261026b601f1991610764565b015f5b81811061064f57505084525f91825b84518410156105c8576102908486610be5565b516040516349e2903160e11b8152600481018290526001600160a01b038416602482015290919060a081604481885afa8015610238575f915f9161059a575b506001600160801b031690811561058e57836102ec848b51610be5565b5152604051632e3071cd60e11b81526004810185905290610100826024818a5afa928315610238575f925f94610550575b50604051632c3c915760e01b815260048101879052936080856024818c5afa938415610238575f955f95610514575b5060405163501ad8ff60e11b81529495602090869060049082906001600160a01b03165afa948515610238575f956104e1575b5084156104d3576001600160801b0392838061039e9416921690610bc2565b91169260206ec097ce7bc90715b34b9f10000000006103bd8587610b91565b6040516324f3ce7760e01b81526004810199909952049691829060249082906001600160a01b03165afa8015610238578b915f91610492575b5095606061045187859461048999989796670de0b6b3a764000061041c60019d88610b91565b0410159761042a8888610c1b565b976020610438858551610be5565b5101526040610448848451610be5565b51015251610be5565b5101526080610461858d51610be5565b51015260a0610471848c51610be5565b51015260c0610481838b51610be5565b510152610c0d565b935b019261027d565b959493929150506020853d82116104cb575b816104b160209383610742565b8101031261007c579351929391929091908a9060606103f6565b3d91506104a4565b62bfc92160e01b5f5260045ffd5b9094506020813d821161050c575b816104fc60209383610742565b8101031261007c5751938d61037f565b3d91506104ef565b602096506004955061053c9060803d8111610549575b6105348183610742565b810190610790565b989250905096955061034c565b503d61052a565b9093506105769192506101003d8111610587575b61056e8183610742565b810190610846565b50505094935091505091928b61031d565b503d610564565b5050936001915061048b565b6001600160801b0392506105bc915060a03d81116102315761021e8183610742565b505050919091906102cf565b85516040518091602082016020835281518091526020604084019201905f5b8181106105f5575050500390f35b91935091602060e060019260c0875180518352848101518584015260408101516040840152606081015160608401526080810151608084015260a081015160a08401520151151560c08201520194019101918493926105e7565b6040519060e082019180831067ffffffffffffffff8411176106a3576020926040525f81525f838201525f60408201525f60608201525f60808201525f60a08201525f60c08201528282860101520161026e565b634e487b7160e01b5f52604160045260245ffd5b813581526020918201910161011e565b3461007c57604036600319011261007c576024356001600160a01b038116810361007c576106f96020916004356108bf565b604051908152f35b3461007c575f36600319011261007c577f00000000000000000000000000000000000000000000000000000000000000006001600160a01b03168152602090f35b90601f8019910116810190811067ffffffffffffffff8211176106a357604052565b67ffffffffffffffff81116106a35760051b60200190565b51906001600160a01b038216820361007c57565b919082608091031261007c576107a58261077c565b916107b26020820161077c565b916107cb60606107c46040850161077c565b930161077c565b90565b51906001600160801b038216820361007c57565b51906dffffffffffffffffffffffffffff8216820361007c57565b908160a091031261007c57610811816107ce565b9161081e602083016107ce565b916040810151801515810361007c57916107cb608061083f606085016107e2565b93016107ce565b91908261010091031261007c57815163ffffffff8116810361007c579161086f602082016107e2565b91604082015180600f0b810361007c579161088c606082016107ce565b91610899608083016107ce565b916108a660a082016107e2565b916107cb60e06108b860c085016107e2565b93016107e2565b604051632c3c915760e01b8152600481018290529091907f00000000000000000000000000000000000000000000000000000000000000006001600160a01b031690608081602481855afa801561023857610951935f925f92610b66575b506040516349e2903160e11b8152600481018790526001600160a01b0390911660248201529360a090859081906044820190565b0381865afa938415610238575f905f95610b3a575b506001600160801b03168015610b305760405163501ad8ff60e11b815292602090849060049082906001600160a01b03165afa928315610238575f93610afc575b5082156104d3576ec097ce7bc90715b34b9f10000000006109cc602494602093610b91565b6040516324f3ce7760e01b815260048101899052949190049284919082906001600160a01b03165afa918215610238575f92610ac6575b50610a1a61010092670de0b6b3a764000092610b91565b0493602460405180948193632e3071cd60e11b835260048301525afa91821561023857610a60925f925f91610a8e575b506001600160801b038080921693169116610bc2565b80821115610a88578103908111610a745790565b634e487b7160e01b5f52601160045260245ffd5b50505f90565b6001600160801b039350839150610ab482916101003d81116105875761056e8183610742565b50505097935091505094925050610a4a565b91506020823d602011610af4575b81610ae160209383610742565b8101031261007c57905190610a1a610a03565b3d9150610ad4565b9092506020813d602011610b28575b81610b1860209383610742565b8101031261007c5751915f6109a7565b3d9150610b0b565b5050505050505f90565b6001600160801b039550610b5d915060a03d60a0116102315761021e8183610742565b50505094610966565b60a09350610b8491925060803d608011610549576105348183610742565b949250905092919061091d565b81810292918115918404141715610a7457565b8115610bae570490565b634e487b7160e01b5f52601260045260245ffd5b919060018101809111610a7457620f42408201809211610a74576107cb92610c73565b8051821015610bf95760209160051b010190565b634e487b7160e01b5f52603260045260245ffd5b5f198114610a745760010190565b9081158015610c6c575b610a88576ec097ce7bc90715b34b9f100000000091828102928184041490151715610a74575f198201918211610a7457610c5e91610ba4565b60018101809111610a745790565b505f610c25565b9081158015610ca6575b610c9f57610c8a91610b91565b5f19810191908211610a7457610c5e91610ba4565b5050505f90565b508015610c7d56fea2646970667358221220ed2a16c35f943e7acd791e5818ba58e93fc5a01c32a508ca00beb87d3df57e5364736f6c634300081e0033",
  "linkReferences": {},
  "deployedLinkReferences": {}
}