{
  "_format": "hh-sol-artifact-1",
  "contractName": "PegCore",
  "sourceName": "contracts/core/PegCore.sol",
  "abi": [
    {
      "inputs": [],
      "stateMutability": "nonpayable",
      "type": "constructor"
    },
    {
      "inputs": [],
      "name": "AlreadySet",
      "type": "error"
    },
    {
      "inputs": [],
      "name": "InconsistentInput",
      "type": "error"
    },
    {
      "inputs": [],
      "name": "InsufficientCollateral",
      "type": "error"
    },
    {
      "inputs": [],
      "name": "InsufficientSwapLiquidity",
      "type": "error"
    },
    {
      "inputs": [],
      "name": "InvalidAddress",
      "type": "error"
    },
    {
      "inputs": [],
      "name": "InvalidLltv",
      "type": "error"
    },
    {
      "inputs": [],
      "name": "InvalidMarketParams",
      "type": "error"
    },
    {
      "inputs": [],
      "name": "InvalidPrice",
      "type": "error"
    },
    {
      "inputs": [],
      "name": "InvalidSwap",
      "type": "error"
    },
    {
      "inputs": [],
      "name": "InvalidSwap",
      "type": "error"
    },
    {
      "inputs": [],
      "name": "LltvNotEnabled",
      "type": "error"
    },
    {
      "inputs": [],
      "name": "MarketAlreadyExists",
      "type": "error"
    },
    {
      "inputs": [],
      "name": "MarketNotActive",
      "type": "error"
    },
    {
      "inputs": [],
      "name": "MarketNotFound",
      "type": "error"
    },
    {
      "inputs": [],
      "name": "NoSpareCapacity",
      "type": "error"
    },
    {
      "inputs": [],
      "name": "NotMinter",
      "type": "error"
    },
    {
      "inputs": [],
      "name": "PendingFeeDust",
      "type": "error"
    },
    {
      "inputs": [
        {
          "internalType": "address",
          "name": "token",
          "type": "address"
        }
      ],
      "name": "SafeERC20FailedOperation",
      "type": "error"
    },
    {
      "inputs": [],
      "name": "SlippageExceeded",
      "type": "error"
    },
    {
      "inputs": [],
      "name": "SwapNotEnabled",
      "type": "error"
    },
    {
      "inputs": [],
      "name": "TransferAmountExceedsAllowance",
      "type": "error"
    },
    {
      "inputs": [],
      "name": "TransferAmountExceedsBalance",
      "type": "error"
    },
    {
      "inputs": [],
      "name": "Unauthorized",
      "type": "error"
    },
    {
      "inputs": [],
      "name": "UnsupportedFeature",
      "type": "error"
    },
    {
      "inputs": [],
      "name": "ZeroAmount",
      "type": "error"
    },
    {
      "anonymous": false,
      "inputs": [
        {
          "indexed": true,
          "internalType": "Id",
          "name": "id",
          "type": "bytes32"
        },
        {
          "indexed": true,
          "internalType": "address",
          "name": "sender",
          "type": "address"
        },
        {
          "indexed": true,
          "internalType": "address",
          "name": "onBehalf",
          "type": "address"
        },
        {
          "indexed": false,
          "internalType": "uint256",
          "name": "assets",
          "type": "uint256"
        },
        {
          "indexed": false,
          "internalType": "uint256",
          "name": "shares",
          "type": "uint256"
        }
      ],
      "name": "Burn",
      "type": "event"
    },
    {
      "anonymous": false,
      "inputs": [
        {
          "indexed": true,
          "internalType": "Id",
          "name": "id",
          "type": "bytes32"
        },
        {
          "components": [
            {
              "internalType": "address",
              "name": "collateralToken",
              "type": "address"
            },
            {
              "internalType": "address",
              "name": "loanToken",
              "type": "address"
            },
            {
              "internalType": "address",
              "name": "oracle",
              "type": "address"
            },
            {
              "internalType": "address",
              "name": "model",
              "type": "address"
            }
          ],
          "indexed": false,
          "internalType": "struct MarketParams",
          "name": "marketParams",
          "type": "tuple"
        }
      ],
      "name": "CreateMarket",
      "type": "event"
    },
    {
      "anonymous": false,
      "inputs": [
        {
          "indexed": true,
          "internalType": "Id",
          "name": "id",
          "type": "bytes32"
        },
        {
          "indexed": true,
          "internalType": "address",
          "name": "user",
          "type": "address"
        },
        {
          "indexed": false,
          "internalType": "bool",
          "name": "enabled",
          "type": "bool"
        }
      ],
      "name": "EnableSwap",
      "type": "event"
    },
    {
      "anonymous": false,
      "inputs": [
        {
          "indexed": true,
          "internalType": "Id",
          "name": "id",
          "type": "bytes32"
        },
        {
          "indexed": true,
          "internalType": "address",
          "name": "sender",
          "type": "address"
        },
        {
          "indexed": true,
          "internalType": "address",
          "name": "onBehalf",
          "type": "address"
        },
        {
          "indexed": false,
          "internalType": "address",
          "name": "receiver",
          "type": "address"
        },
        {
          "indexed": false,
          "internalType": "uint256",
          "name": "assets",
          "type": "uint256"
        },
        {
          "indexed": false,
          "internalType": "uint256",
          "name": "shares",
          "type": "uint256"
        }
      ],
      "name": "Mint",
      "type": "event"
    },
    {
      "anonymous": false,
      "inputs": [
        {
          "indexed": true,
          "internalType": "Id",
          "name": "id",
          "type": "bytes32"
        },
        {
          "indexed": false,
          "internalType": "uint112",
          "name": "cap",
          "type": "uint112"
        }
      ],
      "name": "SetBorrowCap",
      "type": "event"
    },
    {
      "anonymous": false,
      "inputs": [
        {
          "indexed": true,
          "internalType": "address",
          "name": "model",
          "type": "address"
        },
        {
          "indexed": false,
          "internalType": "bool",
          "name": "approved",
          "type": "bool"
        }
      ],
      "name": "SetModel",
      "type": "event"
    },
    {
      "anonymous": false,
      "inputs": [
        {
          "indexed": true,
          "internalType": "Id",
          "name": "id",
          "type": "bytes32"
        },
        {
          "indexed": true,
          "internalType": "address",
          "name": "sender",
          "type": "address"
        },
        {
          "indexed": true,
          "internalType": "address",
          "name": "onBehalf",
          "type": "address"
        },
        {
          "indexed": false,
          "internalType": "uint256",
          "name": "assets",
          "type": "uint256"
        }
      ],
      "name": "Supply",
      "type": "event"
    },
    {
      "anonymous": false,
      "inputs": [
        {
          "indexed": true,
          "internalType": "Id",
          "name": "idIn",
          "type": "bytes32"
        },
        {
          "indexed": true,
          "internalType": "Id",
          "name": "idOut",
          "type": "bytes32"
        },
        {
          "indexed": true,
          "internalType": "address",
          "name": "sender",
          "type": "address"
        },
        {
          "indexed": false,
          "internalType": "address",
          "name": "receiver",
          "type": "address"
        },
        {
          "indexed": false,
          "internalType": "uint256",
          "name": "assetsIn",
          "type": "uint256"
        },
        {
          "indexed": false,
          "internalType": "uint256",
          "name": "amountOut",
          "type": "uint256"
        },
        {
          "indexed": false,
          "internalType": "uint256",
          "name": "fee",
          "type": "uint256"
        }
      ],
      "name": "Swap",
      "type": "event"
    },
    {
      "anonymous": false,
      "inputs": [
        {
          "indexed": true,
          "internalType": "Id",
          "name": "id",
          "type": "bytes32"
        },
        {
          "indexed": true,
          "internalType": "address",
          "name": "sender",
          "type": "address"
        },
        {
          "indexed": true,
          "internalType": "address",
          "name": "onBehalf",
          "type": "address"
        },
        {
          "indexed": false,
          "internalType": "address",
          "name": "receiver",
          "type": "address"
        },
        {
          "indexed": false,
          "internalType": "uint256",
          "name": "assets",
          "type": "uint256"
        }
      ],
      "name": "Withdraw",
      "type": "event"
    },
    {
      "inputs": [],
      "name": "ORACLE_PRICE_SCALE",
      "outputs": [
        {
          "internalType": "uint256",
          "name": "",
          "type": "uint256"
        }
      ],
      "stateMutability": "view",
      "type": "function"
    },
    {
      "inputs": [],
      "name": "WAD",
      "outputs": [
        {
          "internalType": "uint256",
          "name": "",
          "type": "uint256"
        }
      ],
      "stateMutability": "view",
      "type": "function"
    },
    {
      "inputs": [],
      "name": "admin",
      "outputs": [
        {
          "internalType": "address",
          "name": "",
          "type": "address"
        }
      ],
      "stateMutability": "view",
      "type": "function"
    },
    {
      "inputs": [
        {
          "internalType": "Id",
          "name": "_id",
          "type": "bytes32"
        },
        {
          "internalType": "uint256",
          "name": "_assets",
          "type": "uint256"
        },
        {
          "internalType": "uint256",
          "name": "_shares",
          "type": "uint256"
        },
        {
          "internalType": "address",
          "name": "_onBehalf",
          "type": "address"
        }
      ],
      "name": "burn",
      "outputs": [
        {
          "internalType": "uint256",
          "name": "assetsBurnt_",
          "type": "uint256"
        },
        {
          "internalType": "uint256",
          "name": "sharesBurnt_",
          "type": "uint256"
        }
      ],
      "stateMutability": "nonpayable",
      "type": "function"
    },
    {
      "inputs": [
        {
          "internalType": "Id",
          "name": "_id",
          "type": "bytes32"
        }
      ],
      "name": "claimFees",
      "outputs": [
        {
          "internalType": "uint256",
          "name": "claimed_",
          "type": "uint256"
        }
      ],
      "stateMutability": "nonpayable",
      "type": "function"
    },
    {
      "inputs": [
        {
          "components": [
            {
              "internalType": "address",
              "name": "collateralToken",
              "type": "address"
            },
            {
              "internalType": "address",
              "name": "loanToken",
              "type": "address"
            },
            {
              "internalType": "address",
              "name": "oracle",
              "type": "address"
            },
            {
              "internalType": "address",
              "name": "model",
              "type": "address"
            }
          ],
          "internalType": "struct MarketParams",
          "name": "_marketParams",
          "type": "tuple"
        }
      ],
      "name": "createMarket",
      "outputs": [],
      "stateMutability": "nonpayable",
      "type": "function"
    },
    {
      "inputs": [
        {
          "internalType": "Id",
          "name": "_id",
          "type": "bytes32"
        },
        {
          "internalType": "bool",
          "name": "_enabled",
          "type": "bool"
        }
      ],
      "name": "enableSwap",
      "outputs": [],
      "stateMutability": "nonpayable",
      "type": "function"
    },
    {
      "inputs": [
        {
          "internalType": "address",
          "name": "",
          "type": "address"
        },
        {
          "internalType": "uint256",
          "name": "",
          "type": "uint256"
        },
        {
          "internalType": "bytes",
          "name": "",
          "type": "bytes"
        }
      ],
      "name": "flashLoan",
      "outputs": [],
      "stateMutability": "pure",
      "type": "function"
    },
    {
      "inputs": [
        {
          "internalType": "Id",
          "name": "_id",
          "type": "bytes32"
        }
      ],
      "name": "idToMarketParams",
      "outputs": [
        {
          "internalType": "address",
          "name": "collateralToken",
          "type": "address"
        },
        {
          "internalType": "address",
          "name": "loanToken",
          "type": "address"
        },
        {
          "internalType": "address",
          "name": "oracle",
          "type": "address"
        },
        {
          "internalType": "address",
          "name": "model",
          "type": "address"
        }
      ],
      "stateMutability": "view",
      "type": "function"
    },
    {
      "inputs": [
        {
          "internalType": "Id",
          "name": "",
          "type": "bytes32"
        },
        {
          "internalType": "address",
          "name": "",
          "type": "address"
        },
        {
          "internalType": "uint256",
          "name": "",
          "type": "uint256"
        },
        {
          "internalType": "uint256",
          "name": "",
          "type": "uint256"
        },
        {
          "internalType": "bytes",
          "name": "",
          "type": "bytes"
        }
      ],
      "name": "liquidate",
      "outputs": [
        {
          "internalType": "uint256",
          "name": "",
          "type": "uint256"
        },
        {
          "internalType": "uint256",
          "name": "",
          "type": "uint256"
        }
      ],
      "stateMutability": "pure",
      "type": "function"
    },
    {
      "inputs": [
        {
          "internalType": "Id",
          "name": "_id",
          "type": "bytes32"
        }
      ],
      "name": "market",
      "outputs": [
        {
          "internalType": "uint32",
          "name": "timestamp",
          "type": "uint32"
        },
        {
          "internalType": "uint112",
          "name": "feePerShare",
          "type": "uint112"
        },
        {
          "internalType": "int128",
          "name": "flowDelta",
          "type": "int128"
        },
        {
          "internalType": "uint128",
          "name": "totalBorrowAssets",
          "type": "uint128"
        },
        {
          "internalType": "uint128",
          "name": "totalBorrowShares",
          "type": "uint128"
        },
        {
          "internalType": "uint112",
          "name": "spareCapacity",
          "type": "uint112"
        },
        {
          "internalType": "uint112",
          "name": "totalCollateral",
          "type": "uint112"
        },
        {
          "internalType": "uint112",
          "name": "borrowCap",
          "type": "uint112"
        }
      ],
      "stateMutability": "view",
      "type": "function"
    },
    {
      "inputs": [
        {
          "internalType": "Id",
          "name": "_id",
          "type": "bytes32"
        },
        {
          "internalType": "uint256",
          "name": "_assets",
          "type": "uint256"
        },
        {
          "internalType": "uint256",
          "name": "_shares",
          "type": "uint256"
        },
        {
          "internalType": "address",
          "name": "_onBehalf",
          "type": "address"
        },
        {
          "internalType": "address",
          "name": "_receiver",
          "type": "address"
        }
      ],
      "name": "mint",
      "outputs": [
        {
          "internalType": "uint256",
          "name": "assetsMinted_",
          "type": "uint256"
        },
        {
          "internalType": "uint256",
          "name": "sharesMinted_",
          "type": "uint256"
        }
      ],
      "stateMutability": "nonpayable",
      "type": "function"
    },
    {
      "inputs": [
        {
          "internalType": "address",
          "name": "_model",
          "type": "address"
        }
      ],
      "name": "models",
      "outputs": [
        {
          "internalType": "bool",
          "name": "_isEnabled",
          "type": "bool"
        }
      ],
      "stateMutability": "view",
      "type": "function"
    },
    {
      "inputs": [
        {
          "internalType": "Id",
          "name": "_id",
          "type": "bytes32"
        },
        {
          "internalType": "address",
          "name": "_user",
          "type": "address"
        }
      ],
      "name": "position",
      "outputs": [
        {
          "internalType": "uint128",
          "name": "collateral",
          "type": "uint128"
        },
        {
          "internalType": "uint128",
          "name": "borrowShares",
          "type": "uint128"
        },
        {
          "internalType": "bool",
          "name": "swapEnabled",
          "type": "bool"
        },
        {
          "internalType": "uint112",
          "name": "lastFeePerShare",
          "type": "uint112"
        },
        {
          "internalType": "uint128",
          "name": "lockCollateral",
          "type": "uint128"
        }
      ],
      "stateMutability": "view",
      "type": "function"
    },
    {
      "inputs": [
        {
          "internalType": "Id",
          "name": "_idIn",
          "type": "bytes32"
        },
        {
          "internalType": "Id",
          "name": "_idOut",
          "type": "bytes32"
        },
        {
          "internalType": "uint256",
          "name": "_amountIn",
          "type": "uint256"
        }
      ],
      "name": "quote",
      "outputs": [
        {
          "internalType": "uint256",
          "name": "amountOut_",
          "type": "uint256"
        },
        {
          "internalType": "uint256",
          "name": "fee_",
          "type": "uint256"
        }
      ],
      "stateMutability": "view",
      "type": "function"
    },
    {
      "inputs": [
        {
          "internalType": "Id",
          "name": "_id",
          "type": "bytes32"
        },
        {
          "internalType": "uint112",
          "name": "_cap",
          "type": "uint112"
        }
      ],
      "name": "setBorrowCap",
      "outputs": [],
      "stateMutability": "nonpayable",
      "type": "function"
    },
    {
      "inputs": [
        {
          "internalType": "address",
          "name": "_model",
          "type": "address"
        },
        {
          "internalType": "bool",
          "name": "_approved",
          "type": "bool"
        }
      ],
      "name": "setModel",
      "outputs": [],
      "stateMutability": "nonpayable",
      "type": "function"
    },
    {
      "inputs": [
        {
          "internalType": "Id",
          "name": "_id",
          "type": "bytes32"
        },
        {
          "internalType": "uint256",
          "name": "_assets",
          "type": "uint256"
        },
        {
          "internalType": "address",
          "name": "_onBehalf",
          "type": "address"
        }
      ],
      "name": "supply",
      "outputs": [
        {
          "internalType": "uint256",
          "name": "assetsSupplied_",
          "type": "uint256"
        }
      ],
      "stateMutability": "nonpayable",
      "type": "function"
    },
    {
      "inputs": [
        {
          "internalType": "Id",
          "name": "_idIn",
          "type": "bytes32"
        },
        {
          "internalType": "Id",
          "name": "_idOut",
          "type": "bytes32"
        },
        {
          "internalType": "uint256",
          "name": "_amountIn",
          "type": "uint256"
        },
        {
          "internalType": "uint256",
          "name": "_minAmountOut",
          "type": "uint256"
        }
      ],
      "name": "swap",
      "outputs": [
        {
          "internalType": "uint256",
          "name": "amountOut_",
          "type": "uint256"
        }
      ],
      "stateMutability": "nonpayable",
      "type": "function"
    },
    {
      "inputs": [
        {
          "internalType": "Id",
          "name": "_id",
          "type": "bytes32"
        },
        {
          "internalType": "uint256",
          "name": "_assets",
          "type": "uint256"
        },
        {
          "internalType": "address",
          "name": "_onBehalf",
          "type": "address"
        },
        {
          "internalType": "address",
          "name": "_receiver",
          "type": "address"
        }
      ],
      "name": "withdraw",
      "outputs": [
        {
          "internalType": "uint256",
          "name": "assetsWithdrawn_",
          "type": "uint256"
        }
      ],
      "stateMutability": "nonpayable",
      "type": "function"
    }
  ],
  "bytecode": "0x60a0806040523460305733608052612e40908161003582396080518181816102a601528181610cef01526110520152f35b5f80fdfe60806040526004361015610011575f80fd5b5f5f3560e01c80631635e52514611a115780632c3c9157146119ab5780634effae801461197857806354917f83146119395780635c60e39a146118a657806367911572146114c15780636a1460241461149e5780637d13fe281461111e5780637eab9da21461102d57806393c5206214610faa578063b208212414610f81578063ba6cb7df14610dcf578063bc43e26914610cc3578063c2df23ef14610c86578063c9de7db914610a77578063cf1e6ba51461083f578063d90cf07014610324578063e0232b42146102d5578063f851a440146102905763fb211926146100f6575f80fd5b3461028d57606036600319011261028d57602435600435610115611d9f565b9061011f81611fda565b50821561027e576001600160a01b03821691821561026f573383036102615783856101fc92846020985281885260408220865f52885260405f20826001820160ff815416610241575b60ff91926001600160801b03610189610180896122de565b82845416611df2565b166001600160801b03198254161790556101a2866127ad565b88865260018c526001600160701b036101c5600360408920019282845416611f96565b166001600160701b03198254161790555416610230575b5050838152600287526040902054309033906001600160a01b03166127ff565b604051908382527fa2c5706321bae6e7ee1fa770f9810f1e75b30392618e8a38cead3c0afcf6713d853393a4604051908152f35b61023a918661233d565b5f806101dc565b60ff915061024f848961201f565b5061025a84896121d1565b9150610168565b6282b42960e81b8552600485fd5b63e6c4247b60e01b8552600485fd5b631f2a200560e01b8452600484fd5b80fd5b503461028d578060031936011261028d576040517f00000000000000000000000000000000000000000000000000000000000000006001600160a01b03168152602090f35b503461028d57606036600319011261028d576102ef611d73565b5060443567ffffffffffffffff8111610320579061031260049236908401611dc4565b5050634656f6b760e01b8152fd5b5080fd5b503461028d57608036600319011261028d5760043560443560243561034883611fda565b9261035282611fda565b82821461083057845181516001600160a01b039182169116036108305783156108215781865260016020526001600160701b03600260408820015460801c161580156107fe575b6107ef5760408501516103b4906001600160a01b03166125d1565b604082018051909291610487916103d3906001600160a01b03166125d1565b858a52600160205261040b828b600160406001600160701b036002828520015460801c16928b815282602052200154600f0b9061264c565b878b526001602052610443828c600160406001600160701b036002828520015460801c16928d815282602052200154600f0b9061264c565b91878c52600260205260208c604060018060a01b036003828420015416918b81526001845220908a60405180998194829363494b043b60e01b845260048401611edc565b03915afa9384156107e4578c946107aa575b6104a495508a6126af565b91979093881561079b57606435891061078c576105038a8a9289825260016020526104fd600160406001600160701b036002828720015460801c16948d815282602052200154600f0b9160018060a01b039051166125d1565b9161264c565b1061077d57602001906105238760018060a01b03845116309033906127ff565b61052c846127ad565b858a5260016020526001600160701b03610550600360408d20019282845416611f76565b166001600160701b0319825416179055610569846127ad565b868a5260016020526001600160701b0361058d600360408d20019282845416611f96565b82546dffffffffffffffffffffffffffff191691161790558489526001602081905260408a200154600f0b90600160ff1b8114610769578992916105d391840390612891565b858352600160205260016040842001906001600160801b0319825416906001600160801b03161790558582526001602052610618886001604085200154600f0b612891565b868352600160205260016040842001906001600160801b0319825416906001600160801b031617905561064b84876128e8565b516001600160a01b0316803b1561032057604051632770a7eb60e21b8152306004820152602481018890529082908290604490829084905af1801561075e57610749575b5050602001516001600160a01b0316803b15610745576040516340c10f1960e01b8152336004820152602481018790529087908290604490829084905af1801561073a57610721575b5060209550604051933385528685015284604085015260608401527f2eca625fd1a3f43954839468a4378ff4ee87d7f02e8854367482de55ee50e69960803394a4604051908152f35b61072c878092611e42565b61073657856106d8565b8580fd5b6040513d89823e3d90fd5b8680fd5b8161075391611e42565b61074557865f61068f565b6040513d84823e3d90fd5b634e487b7160e01b8a52601160045260248afd5b63b27fba5b60e01b8952600489fd5b638199f5f360e01b8a5260048afd5b63b27fba5b60e01b8a5260048afd5b93506020853d6020116107dc575b816107c560209383611e42565b810103126107d8576104a4945193610499565b5f80fd5b3d91506107b8565b6040513d8e823e3d90fd5b637e99d8bb60e01b8652600486fd5b5082865260016020526001600160701b03600260408820015460801c1615610399565b631f2a200560e01b8652600486fd5b631115766760e01b8652600486fd5b503461028d57608036600319011261028d5760243560043561085f611d9f565b90610868611d5d565b90610872816124cd565b508315610a68576001600160a01b038216948515610a59576001600160a01b03841693338503610a4b57610940908383528260205260408320865f5260205260405f20836001820160ff815416610a2b575b60ff91926001600160801b036108e56108dc8d6122de565b82845416611ebc565b166001600160801b03198254161790556108fe8a6127ad565b87875260016020526001600160701b03610922600360408a20019282845416611f76565b166001600160701b03198254161790555416610a1a575b50836123bb565b15610a0b57818152600260205260018060a01b036040822054166040519663a9059cbb60e01b83526004528560245260208260448180855af160018351148116156109ec575b87604052156109d95750506001600160a01b039190911684526020808501849052933391907f02b546d425c0277a699ece94d6fc1ae7b5202fd996e87ccc97644a36d288d60190604090a4604051908152f35b635274afe760e01b825260045260249150fd5b6001811516610a0257813b15153d151616610986565b873d84823e3d90fd5b633a23d82560e01b8152600490fd5b610a2590828661233d565b5f610939565b60ff9150610a39848861201f565b50610a4484886121d1565b91506108c4565b6282b42960e81b8252600482fd5b63e6c4247b60e01b8152600490fd5b631f2a200560e01b8552600485fd5b503461028d57604036600319011261028d57600435610a94611db5565b90610a9e81611fda565b5080835260208381526040808520335f90815292529020600101805483151593919060ff1615158414610c7757610ad533846121d1565b918080610c6f575b610c605715610bad57610b7e91610b1b610b2092600160ff1982541617815585885260016020526001600160701b03604089205460201c1690611f54565b6127ad565b8285526001602052610b4660026040872001916001600160701b03835460801c16611f96565b9080546dffffffffffffffffffffffffffff60801b191660809290921b6dffffffffffffffffffffffffffff60801b16919091179055565b6040519182527f94bd3d922af8b41e8d6df7ea4a35479e0ecc4bb49c283757cb3178632112098e60203393a380f35b610bb7338461201f565b5081151580610c31575b610c2257610c1d91610b1b610bf79260ff19815416815585885260016020526001600160701b03604089205460201c1690611f54565b8285526001602052610b4660026040872001916001600160701b03835460801c16611f76565b610b7e565b635cdb3ccd60e01b8552600485fd5b506001600160701b03815460081c1683865260016020526001600160701b03604087205460201c161415610bc1565b63e583418960e01b8652600486fd5b508215610add565b63a741a04560e01b8552600485fd5b503461028d5760a036600319011261028d57610ca0611d89565b5060843567ffffffffffffffff8111610320579061031260049236908401611dc4565b503461028d57604036600319011261028d576004356024356001600160701b03811690818103610dcb577f00000000000000000000000000000000000000000000000000000000000000006001600160a01b03163303610dbd57828452600260205260408420600101546001600160a01b031615610dae5782845260016020908152604080862060030180546dffffffffffffffffffffffffffff60701b191660709490941b6dffffffffffffffffffffffffffff60701b169390931790925590519182527f083e77d1516ac1f63019723dc994946e4f5e18280e6424ef66e4c5bb42d2336f91a280f35b6307db1be560e41b8452600484fd5b6282b42960e81b8452600484fd5b8380fd5b503461028d57606036600319011261028d5760243590600435610df181611fda565b92610dfb81611fda565b93818314610f7257805185516001600160a01b03918216911603610f725760400151610e4790610e33906001600160a01b03166125d1565b6040909501516001600160a01b03166125d1565b938284526001602052610efd6020610ebd87610e89856001600160701b03600260408c20015460801c16898b5260018652600160408c200154600f0b9061264c565b95808952600184526001600160701b03600260408b20015460801c1690895260018452600160408a200154600f0b9061264c565b948087526002825260018060a01b0360036040892001541681885260018352604088209160405180958194829363494b043b60e01b845260048401611edc565b03915afa948515610f665794610f2d575b6040610f208686868a876044356126af565b5082519182526020820152f35b935091906020843d602011610f5e575b81610f4a60209383611e42565b810103126107d85792519290916040610f0e565b3d9150610f3d565b604051903d90823e3d90fd5b631115766760e01b8452600484fd5b503461028d578060031936011261028d5760206040516a0c097ce7bc90715b34b9f160241b8152f35b503461028d57604036600319011261028d576040610fc6611d89565b91600435815280602052209060018060a01b03165f5260205260a060405f206001600160801b036001825492015460405192828116845260801c602084015260ff8116151560408401526001600160701b038160081c16606084015260781c166080820152f35b503461028d57604036600319011261028d57611047611d73565b61104f611db5565b907f00000000000000000000000000000000000000000000000000000000000000006001600160a01b03163303611110576001600160a01b031690811561110157818352600360205260ff60408420541690151580911515146110f25760207f1773969b4e4d3353691c4dacb26e4e092c52631327bdea0e877437aee18b95f291838552600382526040852060ff1981541660ff8316179055604051908152a280f35b63a741a04560e01b8352600483fd5b63e6c4247b60e01b8352600483fd5b6282b42960e81b8352600483fd5b503461028d57608036600319011261028d57600435602435604435611141611d5d565b928192809461114f836124cd565b9115938015851461148f576001600160a01b03821694851561148057338603611472578489528860205260408920865f5260205260405f20968992600189019260ff845416611455575b61140f5750508489526001602052600160408a20015460801c858a5260016020526001600160801b03600260408c20015416620f424081018091116113fb57600182018092116113fb576111fc60ff93926111f76112a8938d612a46565b612a59565b985b6112696112318b61122b611226855460801c926001600160801b03895460781c169384612575565b6122de565b90611ebc565b84546fffffffffffffffffffffffffffffffff60781b191660789190911b6fffffffffffffffffffffffffffffffff60781b16178455565b61127f6112758b6122de565b825460801c611ebc565b81546001600160801b031660809190911b6fffffffffffffffffffffffffffffffff1916179055565b896001600160801b036112d6600260406112c18d6122de565b948b8152600160205220019282845416611ebc565b166001600160801b0319825416179055858a52600160205261133461130b600160408d20015460801c8b8082039111026122de565b878c526001602052600160408d2001906001600160801b0382549181199060801b169116179055565b54166113ea575b5050602001516001600160a01b0316803b1561073657604051632770a7eb60e21b8152336004820152602481018690529086908290604490829084905af180156113df576113c6575b50604080955051908482528360208301527fa4e9dfc2b37f2472eca369f31036fc6f147510220f6d5af742412421b4eb0cbe863393a482519182526020820152f35b6113d1868092611e42565b6113db5784611384565b8480fd5b6040513d88823e3d90fd5b6113f4918461233d565b5f8061133b565b634e487b7160e01b8b52601160045260248bfd5b60ff929198995061144f6112a891888d5260016020528c6001600160801b03600260406001818520015460801c938d815260016020522001541691612552565b996111fe565b9350611461858861201f565b5061146c85886121d1565b93611199565b6282b42960e81b8952600489fd5b63e6c4247b60e01b8952600489fd5b63f0732dd760e01b8852600488fd5b503461028d578060031936011261028d576020604051670de0b6b3a76400008152f35b503461028d57608036600319011261028d576001600160a01b036114e3611e64565b1615801561188e575b8015611876575b801561185e575b610a59576001600160a01b0361150e611ea6565b168152600360205260ff60408220541615611850576001600160a01b03611533611ea6565b16602061153e611e64565b604051634cd2aeb360e11b81526001600160a01b03909116600482015291829060249082905afa90811561075e578291611815575b501561180657606060405161158781611e12565b61160d611592611d73565b8083526115ff6115a0611d89565b938460208201526115af611d9f565b908160408201526115be611d5d565b9601869052604080516001600160a01b03948516602082019081529685169181019190915290831660608201529190941660808201529192829060a0820190565b03601f198101835282611e42565b519020602460206001600160a01b03611624611ea6565b16604051928380926324f3ce7760e01b82528660048301525afa9081156117fb5783916117c9575b5080159081156117b6575b506117a757808252600260205260408220600101546001600160a01b0316611798578082526002602052604082206001600160a01b03611695611e64565b82546001600160a01b03191691161781556116ae611e7a565b6001820180546001600160a01b0319166001600160a01b039092169190911790556116d7611e90565b6002820180546001600160a01b0319166001600160a01b039092169190911790556003611702611ea6565b910180546001600160a01b0319166001600160a01b039283161790556040517fe1ffbdda3aceb1bdeeab2f3f7b2a64d22d6b41f7d0f809051dbb0f4a17af4577916080919061174f611d73565b1681526001600160a01b03611762611d89565b1660208201526001600160a01b03611778611d9f565b1660408201526001600160a01b0361178e611d5d565b166060820152a280f35b630313b28560e01b8252600482fd5b63021aa0d760e01b8252600482fd5b670de0b6b3a7640000915010155f611657565b90506020813d6020116117f3575b816117e460209383611e42565b810103126107d857515f61164c565b3d91506117d7565b6040513d85823e3d90fd5b63494e780760e01b8152600490fd5b90506020813d602011611848575b8161183060209383611e42565b8101031261032057518015158103610320575f611573565b3d9150611823565b6282b42960e81b8152600490fd5b506001600160a01b0361186f611ea6565b16156114fa565b506001600160a01b03611887611e90565b16156114f3565b506001600160a01b0361189f611e7a565b16156114ec565b503461028d57602036600319011261028d5760406101009160043581526001602052206001600160701b03815491816001820154916003600282015491015492826040519663ffffffff8116885260201c16602087015280600f0b604087015260801c60608601526001600160801b038116608086015260801c1660a084015281811660c084015260701c1660e0820152f35b503461028d57602036600319011261028d5760209060ff906040906001600160a01b03611964611d73565b168152600384522054166040519015158152f35b503461028d57602036600319011261028d5760206119a360043561199b816124cd565b50339061201f565b604051908152f35b503461028d57602036600319011261028d57600435815260026020818152604092839020805460018201549382015460039092015485516001600160a01b0392831681529482169385019390935290811693830193909352919091166060820152608090f35b346107d85760a03660031901126107d857600435602435604435611a33611d5d565b608435939091906001600160a01b038516908186036107d8578483611a5783611fda565b91159585158714611d4e578415611d3f576001600160a01b03811695338703611d3157845f525f60205260405f20875f5260205260405f20925f91600185019960ff8b5416611d14575b611c9f575050845f526001602052600160405f20015460801c855f5260016020526001600160801b03600260405f2001541698620f42408a01809a11611c8b5760018201809211611c8b57611b40611bb395611b2a611231611b178f9e8f60ff9861122692611b0f92612b11565b9f5b8d612221565b6001600160801b03865460781c16611df2565b61127f611b368d6122de565b825460801c611df2565b611b498a6122de565b875f5260016020526001600160801b03611b6d600260405f20019282845416611df2565b166001600160801b0319825416179055611ba6611b898c6122de565b885f52600160205261127f600160405f200191825460801c611df2565b5416611c7a5750836123bb565b15611c6b57602001516001600160a01b0316803b156107d8576040516340c10f1960e01b81526001600160a01b03979097166004880152602487018690525f908790604490829084905af1958615611c6057604096611c50575b50855191825284602083015283868301527f78c254946944bac7cd09f784ede139938b4ab6f826a517d98dfd1cdfa585278160603393a482519182526020820152f35b5f611c5a91611e42565b5f611c0d565b6040513d5f823e3d90fd5b633a23d82560e01b5f5260045ffd5b611c8590828661233d565b89610939565b634e487b7160e01b5f52601160045260245ffd5b5f87815260016020819052604090912080820154600290910154969c50929a956001600160801b03169260801c908101908110611c8b57620f42408301809311611c8b57611cec91612a46565b90611cf691612a59565b98611bb393611b4060ff92611b2a611231611b178f61122690611b11565b9250611d20848861201f565b50611d2b84886121d1565b92611aa1565b6282b42960e81b5f5260045ffd5b63e6c4247b60e01b5f5260045ffd5b63f0732dd760e01b5f5260045ffd5b606435906001600160a01b03821682036107d857565b600435906001600160a01b03821682036107d857565b602435906001600160a01b03821682036107d857565b604435906001600160a01b03821682036107d857565b6024359081151582036107d857565b9181601f840112156107d85782359167ffffffffffffffff83116107d857602083818601950101116107d857565b906001600160801b03809116911601906001600160801b038211611c8b57565b6080810190811067ffffffffffffffff821117611e2e57604052565b634e487b7160e01b5f52604160045260245ffd5b90601f8019910116810190811067ffffffffffffffff821117611e2e57604052565b6004356001600160a01b03811681036107d85790565b6024356001600160a01b03811681036107d85790565b6044356001600160a01b03811681036107d85790565b6064356001600160a01b03811681036107d85790565b906001600160801b03809116911603906001600160801b038211611c8b57565b9092916001600160701b03600361010092610120850196855282815463ffffffff8116602088015260201c166040860152600181015480600f0b606087015260801c60808601528260028201546001600160801b03811660a088015260801c1660c0860152015481811660e085015260701c16910152565b90610100600160781b0382549160081b1690610100600160781b031916179055565b906001600160701b03809116911603906001600160701b038211611c8b57565b906001600160701b03809116911601906001600160701b038211611c8b57565b60405190611fc382611e12565b5f6060838281528260208201528260408201520152565b90611fe3611fb6565b50611fed826124cd565b915f5260016020526001600160701b03600360405f20015460701c161561201057565b635a90bb8d60e11b5f5260045ffd5b9190825f525f60205260405f2060018060a01b0382165f52602052600160405f200192835460ff8116156121c9576001600160701b039060081c16815f5260016020526001600160701b0360405f205460201c16908181146121ad5761208584846121d1565b9081156121b6579082612097926129f5565b80156121ad57825f5260026020526120bd60018060a01b03600260405f200154166125d1565b6a0c097ce7bc90715b34b9f160241b82029182046a0c097ce7bc90715b34b9f160241b03611c8b576120ee91612a59565b9485156121ad57906120ff91611f54565b805f52600160205261211b84600160405f200154600f0b612891565b815f526001602052600160405f2001906001600160801b0319825416906001600160801b03161790555f52600260205260018060a01b03600160405f20015416803b156107d8576040516340c10f1960e01b81526001600160a01b03929092166004830152602482018490525f908290604490829084905af18015611c60576121a15750565b5f6121ab91611e42565b565b505f9450505050565b50509150506121c59192611f54565b5f90565b505f93505050565b5f908152602081815260408083206001600160a01b039490941683529290522080546001909101546001600160801b0360789190911c8116911681810391100290565b91908201809211611c8b57565b9080156122d85761225290825f52600260205261224c60018060a01b03600260405f200154166125d1565b90612a77565b815f526002602052602060018060a01b03600360405f20015416926024604051809581936324f3ce7760e01b835260048301525afa908115611c60575f916122a2575b61229f9250612ace565b90565b90506020823d6020116122d0575b816122bd60209383611e42565b810103126107d85761229f915190612295565b3d91506122b0565b50505f90565b6001600160801b0381116122f8576001600160801b031690565b60405162461bcd60e51b815260206004820152601060248201526f75696e74313238206f766572666c6f7760801b6044820152606490fd5b91908203918211611c8b57565b9061234890826121d1565b82811061238557610b1b6121ab9361235f92612330565b905f526001602052610b46600260405f2001916001600160701b03835460801c16611f96565b610b1b612395916121ab94612330565b905f526001602052610b46600260405f2001916001600160701b03835460801c16611f76565b6123c58282612b45565b9182156124c55761242c6a0c097ce7bc90715b34b9f160241b91835f5260026020526123ff60018060a01b03600260405f200154166125d1565b90845f525f60205260405f209060018060a01b03165f526020526001600160801b0360405f205416612a46565b0490805f526002602052602060018060a01b03600360405f20015416916024604051809481936324f3ce7760e01b835260048301525afa908115611c60575f9161248b575b5061248590670de0b6b3a764000092612a46565b04101590565b90506020813d6020116124bd575b816124a660209383611e42565b810103126107d85751670de0b6b3a7640000612471565b3d9150612499565b505050600190565b6124d5611fb6565b505f818152600260205260409020600101546001600160a01b031615612543575f52600260205260405f206040519061250d82611e12565b80546001600160a01b03908116835260018201548116602084015260028201548116604084015260039091015416606082015290565b6307db1be560e41b5f5260045ffd5b919060018101809111611c8b57620f42408201809211611c8b5761229f92612b11565b9190811580156125c0575b6125b9576001600160801b0316908181146125ab576111f7906001600160801b0361229f9416612a46565b50506001600160801b031690565b5050505f90565b506001600160801b03811615612580565b60405163501ad8ff60e11b815290602090829060049082906001600160a01b03165afa908115611c60575f9161261a575b50801561260c5790565b62bfc92160e01b5f5260045ffd5b90506020813d602011612644575b8161263560209383611e42565b810103126107d857515f612602565b3d9150612628565b90916a0c097ce7bc90715b34b9f160241b8202918083046a0c097ce7bc90715b34b9f160241b1490151715611c8b5761268491612a59565b90600f0b905f8282039212818312811691831390151617611c8b575f8113156126aa5790565b505f90565b93909293801561279f5785158015612793575b612784576127106126f06a0c097ce7bc90715b34b9f160241b6126e8876126f895612a46565b049788612a46565b048096612330565b926a0c097ce7bc90715b34b9f160241b8402938085046a0c097ce7bc90715b34b9f160241b1490151715611c8b576127309084612a59565b938415801561277c575b8015612774575b61276b5761275a92916127549186612ba3565b92612a59565b80821015612766575092565b905092565b505f9592505050565b508115612741565b50801561273a565b631115766760e01b5f5260045ffd5b506127108610156126c2565b5050505050505f905f905f90565b6001600160701b0381116127c7576001600160701b031690565b60405162461bcd60e51b815260206004820152601060248201526f75696e74313132206f766572666c6f7760801b6044820152606490fd5b6040516323b872dd60e01b5f9081526001600160a01b039384166004529290931660245260449390935260209060648180865af19060015f5114821615612870575b6040525f606052156128505750565b635274afe760e01b5f9081526001600160a01b0391909116600452602490fd5b90600181151661288857823b15153d15161690612841565b503d5f823e3d90fd5b600f0b5f8282019283129112908015821691151617611c8b576f7fffffffffffffffffffffffffffffff811380156128ce575b61278457600f0b90565b506f7fffffffffffffffffffffffffffffff1981126128c4565b9080156129f157815f5260016020526001600160701b03600260405f20015460801c16156129e257610b1b61293991835f5260016020526001600160701b03600260405f20015460801c1690612c2d565b815f52600160205260405f2090640100000000600160901b0361296a8354926001600160701b038460201c16611f96565b60201b1690640100000000600160901b03191617905563ffffffff42116129ab575f52600160205260405f2063ffffffff421663ffffffff19825416179055565b60405162461bcd60e51b815260206004820152600f60248201526e75696e743332206f766572666c6f7760881b6044820152606490fd5b63e583418960e01b5f5260045ffd5b5050565b916001600160701b0382166001600160701b038416148015612a3e575b6125b9576001600160701b03612a34670de0b6b3a764000094612a3a94611f76565b16612a46565b0490565b508015612a12565b81810292918115918404141715611c8b57565b8115612a63570490565b634e487b7160e01b5f52601260045260245ffd5b9081158015612ac7575b6122d8576a0c097ce7bc90715b34b9f160241b91828102928184041490151715611c8b575f198201918211611c8b57612ab991612a59565b60018101809111611c8b5790565b505f612a81565b9081158015612b0a575b6122d857670de0b6b3a764000091828102928184041490151715611c8b575f198201918211611c8b57612ab991612a59565b505f612ad8565b9081158015612b3d575b6125b957612b2891612a46565b5f19810191908211611c8b57612ab991612a59565b508015612b1b565b90815f525f60205260405f209060018060a01b03165f5260205260405f205460801c80156122d8578161229f925f526001602052600160405f20015460801c905f5260016020526001600160801b03600260405f2001541691612552565b9081158015612c25575b8015612c1d575b6125b957612c0c91612c0782670de0b6b3a7640000612c0081612bd8898098612a46565b04612bfa83612be78680612a46565b0484612bf38a80612a46565b0490612214565b90612a46565b0492612214565b612c59565b818110156122d85761229f91612330565b508215612bb4565b508015612bad565b9081156122d857670de0b6b3a76400008202918204670de0b6b3a764000003611c8b5761229f91612a59565b905f5b60ff8110612c6a5750505090565b83612cbd670de0b6b3a7640000612c8c8382612c868280612a46565b04612a46565b04670de0b6b3a7640000612bf38482612cb681612cae8c82612c868280612a46565b04958b612a46565b0493612a46565b83811015612d5957612ccf8286612db1565b90811561278457612ce09085612330565b91670de0b6b3a7640000830292808404670de0b6b3a76400001490151715611c8b57612d11612d1792600194612a59565b90612214565b945b8581811115612d425790612d2c91612330565b1115612d3c576001905b01612c5c565b50505090565b612d4b91612330565b1115612d3c57600190612d36565b612d638286612db1565b9081156127845784612d7491612330565b91670de0b6b3a7640000830292808404670de0b6b3a76400001490151715611c8b57612da5612dab92600194612a59565b90612330565b94612d19565b90612dc5670de0b6b3a76400009180612a46565b04670de0b6b3a7640000612dde8382612c868280612a46565b049082600302926003840403611c8b57612e04670de0b6b3a76400009161229f94612a46565b0461221456fea2646970667358221220b79fe63221a5a83648adc63e2ded1186abeac7cb6bfc2fe0f05beb69b5217aea64736f6c634300081e0033",
  "linkReferences": {},
  "deployedLinkReferences": {}
}